{
  "abi": [
    {
      "type": "constructor",
      "inputs": [
        {
          "name": "_tokenAddress",
          "type": "address",
          "internalType": "address"
        },
        {
          "name": "_dripInterval",
          "type": "uint256",
          "internalType": "uint256"
        },
        {
          "name": "_dripLimit",
          "type": "uint256",
          "internalType": "uint256"
        },
        {
          "name": "_owner",
          "type": "address",
          "internalType": "address"
        }
      ],
      "stateMutability": "nonpayable"
    },
    {
      "type": "function",
      "name": "deposit",
      "inputs": [
        {
          "name": "_amount",
          "type": "uint256",
          "internalType": "uint256"
        }
      ],
      "outputs": [],
      "stateMutability": "nonpayable"
    },
    {
      "type": "function",
      "name": "drip",
      "inputs": [
        {
          "name": "_amount",
          "type": "uint256",
          "internalType": "uint256"
        }
      ],
      "outputs": [],
      "stateMutability": "nonpayable"
    },
    {
      "type": "function",
      "name": "dripInterval",
      "inputs": [],
      "outputs": [
        {
          "name": "",
          "type": "uint256",
          "internalType": "uint256"
        }
      ],
      "stateMutability": "view"
    },
    {
      "type": "function",
      "name": "dripLimit",
      "inputs": [],
      "outputs": [
        {
          "name": "",
          "type": "uint256",
          "internalType": "uint256"
        }
      ],
      "stateMutability": "view"
    },
    {
      "type": "function",
      "name": "getDripInterval",
      "inputs": [],
      "outputs": [
        {
          "name": "",
          "type": "uint256",
          "internalType": "uint256"
        }
      ],
      "stateMutability": "view"
    },
    {
      "type": "function",
      "name": "getDripLimit",
      "inputs": [],
      "outputs": [
        {
          "name": "",
          "type": "uint256",
          "internalType": "uint256"
        }
      ],
      "stateMutability": "view"
    },
    {
      "type": "function",
      "name": "getDripTime",
      "inputs": [
        {
          "name": "_user",
          "type": "address",
          "internalType": "address"
        }
      ],
      "outputs": [
        {
          "name": "",
          "type": "uint256",
          "internalType": "uint256"
        }
      ],
      "stateMutability": "view"
    },
    {
      "type": "function",
      "name": "lastDripTime",
      "inputs": [
        {
          "name": "",
          "type": "address",
          "internalType": "address"
        }
      ],
      "outputs": [
        {
          "name": "",
          "type": "uint256",
          "internalType": "uint256"
        }
      ],
      "stateMutability": "view"
    },
    {
      "type": "function",
      "name": "owner",
      "inputs": [],
      "outputs": [
        {
          "name": "",
          "type": "address",
          "internalType": "address"
        }
      ],
      "stateMutability": "view"
    },
    {
      "type": "function",
      "name": "renounceOwnership",
      "inputs": [],
      "outputs": [],
      "stateMutability": "nonpayable"
    },
    {
      "type": "function",
      "name": "setDripInterval",
      "inputs": [
        {
          "name": "_newDripInterval",
          "type": "uint256",
          "internalType": "uint256"
        }
      ],
      "outputs": [],
      "stateMutability": "nonpayable"
    },
    {
      "type": "function",
      "name": "setDripLimit",
      "inputs": [
        {
          "name": "_newDripLimit",
          "type": "uint256",
          "internalType": "uint256"
        }
      ],
      "outputs": [],
      "stateMutability": "nonpayable"
    },
    {
      "type": "function",
      "name": "setTokenAddress",
      "inputs": [
        {
          "name": "_newTokenAddress",
          "type": "address",
          "internalType": "address"
        }
      ],
      "outputs": [],
      "stateMutability": "nonpayable"
    },
    {
      "type": "function",
      "name": "token",
      "inputs": [],
      "outputs": [
        {
          "name": "",
          "type": "address",
          "internalType": "contract IERC20"
        }
      ],
      "stateMutability": "view"
    },
    {
      "type": "function",
      "name": "tokenAddress",
      "inputs": [],
      "outputs": [
        {
          "name": "",
          "type": "address",
          "internalType": "address"
        }
      ],
      "stateMutability": "view"
    },
    {
      "type": "function",
      "name": "transferOwnership",
      "inputs": [
        {
          "name": "newOwner",
          "type": "address",
          "internalType": "address"
        }
      ],
      "outputs": [],
      "stateMutability": "nonpayable"
    },
    {
      "type": "event",
      "name": "MTKFaucet__Drip",
      "inputs": [
        {
          "name": "Receiver",
          "type": "address",
          "indexed": true,
          "internalType": "address"
        },
        {
          "name": "Amount",
          "type": "uint256",
          "indexed": true,
          "internalType": "uint256"
        }
      ],
      "anonymous": false
    },
    {
      "type": "event",
      "name": "MTKFaucet__OwnerDeposit",
      "inputs": [
        {
          "name": "amount",
          "type": "uint256",
          "indexed": true,
          "internalType": "uint256"
        }
      ],
      "anonymous": false
    },
    {
      "type": "event",
      "name": "OwnershipTransferred",
      "inputs": [
        {
          "name": "previousOwner",
          "type": "address",
          "indexed": true,
          "internalType": "address"
        },
        {
          "name": "newOwner",
          "type": "address",
          "indexed": true,
          "internalType": "address"
        }
      ],
      "anonymous": false
    },
    {
      "type": "error",
      "name": "MTKFaucet__ExceedLimit",
      "inputs": []
    },
    {
      "type": "error",
      "name": "MTKFaucet__FaucetEmpty",
      "inputs": []
    },
    {
      "type": "error",
      "name": "MTKFaucet__IntervalHasNotPassed",
      "inputs": []
    },
    {
      "type": "error",
      "name": "MTKFaucet__InvalidAmount",
      "inputs": []
    },
    {
      "type": "error",
      "name": "OwnableInvalidOwner",
      "inputs": [
        {
          "name": "owner",
          "type": "address",
          "internalType": "address"
        }
      ]
    },
    {
      "type": "error",
      "name": "OwnableUnauthorizedAccount",
      "inputs": [
        {
          "name": "account",
          "type": "address",
          "internalType": "address"
        }
      ]
    },
    {
      "type": "error",
      "name": "SafeERC20FailedOperation",
      "inputs": [
        {
          "name": "token",
          "type": "address",
          "internalType": "address"
        }
      ]
    }
  ],
  "bytecode": {
    "object": "0x608060405234801561000f575f5ffd5b506040516111ff3803806111ff8339818101604052810190610031919061029b565b805f73ffffffffffffffffffffffffffffffffffffffff168173ffffffffffffffffffffffffffffffffffffffff16036100a2575f6040517f1e4fbdf7000000000000000000000000000000000000000000000000000000008152600401610099919061030e565b60405180910390fd5b6100b18161014960201b60201c565b508360025f6101000a81548173ffffffffffffffffffffffffffffffffffffffff021916908373ffffffffffffffffffffffffffffffffffffffff1602179055508360015f6101000a81548173ffffffffffffffffffffffffffffffffffffffff021916908373ffffffffffffffffffffffffffffffffffffffff160217905550826003819055508160048190555050505050610327565b5f5f5f9054906101000a900473ffffffffffffffffffffffffffffffffffffffff169050815f5f6101000a81548173ffffffffffffffffffffffffffffffffffffffff021916908373ffffffffffffffffffffffffffffffffffffffff1602179055508173ffffffffffffffffffffffffffffffffffffffff168173ffffffffffffffffffffffffffffffffffffffff167f8be0079c531659141344cd1fd0a4f28419497f9722a3daafe3b4186f6b6457e060405160405180910390a35050565b5f5ffd5b5f73ffffffffffffffffffffffffffffffffffffffff82169050919050565b5f6102378261020e565b9050919050565b6102478161022d565b8114610251575f5ffd5b50565b5f815190506102628161023e565b92915050565b5f819050919050565b61027a81610268565b8114610284575f5ffd5b50565b5f8151905061029581610271565b92915050565b5f5f5f5f608085870312156102b3576102b261020a565b5b5f6102c087828801610254565b94505060206102d187828801610287565b93505060406102e287828801610287565b92505060606102f387828801610254565b91505092959194509250565b6103088161022d565b82525050565b5f6020820190506103215f8301846102ff565b92915050565b610ecb806103345f395ff3fe608060405234801561000f575f5ffd5b50600436106100fe575f3560e01c80638b8a60bd11610095578063b1c6d07b11610064578063b1c6d07b14610260578063b6b55f2514610290578063f2fde38b146102ac578063fc0c546a146102c8576100fe565b80638b8a60bd146101d85780638da5cb5b146102085780639d76ea5814610226578063a9a89db914610244576100fe565b80634d4c7d11116100d15780634d4c7d111461017657806358326b7a146101945780636a214811146101b0578063715018a6146101ce576100fe565b8063079da0b31461010257806308b930aa1461012057806326a4e8d21461013e5780634bd74aa61461015a575b5f5ffd5b61010a6102e6565b6040516101179190610c07565b60405180910390f35b6101286102ef565b6040516101359190610c07565b60405180910390f35b61015860048036038101906101539190610c7e565b6102f8565b005b610174600480360381019061016f9190610cd3565b610383565b005b61017e610395565b60405161018b9190610c07565b60405180910390f35b6101ae60048036038101906101a99190610cd3565b61039b565b005b6101b8610623565b6040516101c59190610c07565b60405180910390f35b6101d6610629565b005b6101f260048036038101906101ed9190610c7e565b61063c565b6040516101ff9190610c07565b60405180910390f35b610210610651565b60405161021d9190610d0d565b60405180910390f35b61022e610678565b60405161023b9190610d0d565b60405180910390f35b61025e60048036038101906102599190610cd3565b61069d565b005b61027a60048036038101906102759190610c7e565b6106af565b6040516102879190610c07565b60405180910390f35b6102aa60048036038101906102a59190610cd3565b6106f5565b005b6102c660048036038101906102c19190610c7e565b61085b565b005b6102d06108df565b6040516102dd9190610d81565b60405180910390f35b5f600454905090565b5f600354905090565b610300610904565b8060025f6101000a81548173ffffffffffffffffffffffffffffffffffffffff021916908373ffffffffffffffffffffffffffffffffffffffff1602179055508060015f6101000a81548173ffffffffffffffffffffffffffffffffffffffff021916908373ffffffffffffffffffffffffffffffffffffffff16021790555050565b61038b610904565b8060048190555050565b60045481565b5f81905060035460055f6103ad61098b565b73ffffffffffffffffffffffffffffffffffffffff1673ffffffffffffffffffffffffffffffffffffffff1681526020019081526020015f20546103f19190610dc7565b42101561042a576040517fdcd00fcf00000000000000000000000000000000000000000000000000000000815260040160405180910390fd5b600454811115610466576040517f8a0dc15c00000000000000000000000000000000000000000000000000000000815260040160405180910390fd5b8060015f9054906101000a900473ffffffffffffffffffffffffffffffffffffffff1673ffffffffffffffffffffffffffffffffffffffff166370a08231306040518263ffffffff1660e01b81526004016104c19190610d0d565b602060405180830381865afa1580156104dc573d5f5f3e3d5ffd5b505050506040513d601f19601f820116820180604052508101906105009190610e0e565b1015610538576040517f1a4e77dd00000000000000000000000000000000000000000000000000000000815260040160405180910390fd5b4260055f61054461098b565b73ffffffffffffffffffffffffffffffffffffffff1673ffffffffffffffffffffffffffffffffffffffff1681526020019081526020015f20819055506105d461058c61098b565b8260015f9054906101000a900473ffffffffffffffffffffffffffffffffffffffff1673ffffffffffffffffffffffffffffffffffffffff166109929092919063ffffffff16565b806105dd61098b565b73ffffffffffffffffffffffffffffffffffffffff167f0d1bbd2e807a3de5594530e7ef89d6fd1eb3b027d3a025ed032b76be072f5a2560405160405180910390a35050565b60035481565b610631610904565b61063a5f610a11565b565b6005602052805f5260405f205f915090505481565b5f5f5f9054906101000a900473ffffffffffffffffffffffffffffffffffffffff16905090565b60025f9054906101000a900473ffffffffffffffffffffffffffffffffffffffff1681565b6106a5610904565b8060038190555050565b5f60055f8373ffffffffffffffffffffffffffffffffffffffff1673ffffffffffffffffffffffffffffffffffffffff1681526020019081526020015f20549050919050565b6106fd610904565b60015f9054906101000a900473ffffffffffffffffffffffffffffffffffffffff1673ffffffffffffffffffffffffffffffffffffffff166370a0823161074261098b565b6040518263ffffffff1660e01b815260040161075e9190610d0d565b602060405180830381865afa158015610779573d5f5f3e3d5ffd5b505050506040513d601f19601f8201168201806040525081019061079d9190610e0e565b8111156107d6576040517f87acd46000000000000000000000000000000000000000000000000000000000815260040160405180910390fd5b61082b6107e161098b565b308360015f9054906101000a900473ffffffffffffffffffffffffffffffffffffffff1673ffffffffffffffffffffffffffffffffffffffff16610ad2909392919063ffffffff16565b807fc93a5080776d1057e89d771c525df78e9bab3b5cf4f473eb4eca0268f1d8247560405160405180910390a250565b610863610904565b5f73ffffffffffffffffffffffffffffffffffffffff168173ffffffffffffffffffffffffffffffffffffffff16036108d3575f6040517f1e4fbdf70000000000000000000000000000000000000000000000000000000081526004016108ca9190610d0d565b60405180910390fd5b6108dc81610a11565b50565b60015f9054906101000a900473ffffffffffffffffffffffffffffffffffffffff1681565b61090c61098b565b73ffffffffffffffffffffffffffffffffffffffff1661092a610651565b73ffffffffffffffffffffffffffffffffffffffff16146109895761094d61098b565b6040517f118cdaa70000000000000000000000000000000000000000000000000000000081526004016109809190610d0d565b60405180910390fd5b565b5f33905090565b610a0c838473ffffffffffffffffffffffffffffffffffffffff1663a9059cbb85856040516024016109c5929190610e39565b604051602081830303815290604052915060e01b6020820180517bffffffffffffffffffffffffffffffffffffffffffffffffffffffff8381831617835250505050610b54565b505050565b5f5f5f9054906101000a900473ffffffffffffffffffffffffffffffffffffffff169050815f5f6101000a81548173ffffffffffffffffffffffffffffffffffffffff021916908373ffffffffffffffffffffffffffffffffffffffff1602179055508173ffffffffffffffffffffffffffffffffffffffff168173ffffffffffffffffffffffffffffffffffffffff167f8be0079c531659141344cd1fd0a4f28419497f9722a3daafe3b4186f6b6457e060405160405180910390a35050565b610b4e848573ffffffffffffffffffffffffffffffffffffffff166323b872dd868686604051602401610b0793929190610e60565b604051602081830303815290604052915060e01b6020820180517bffffffffffffffffffffffffffffffffffffffffffffffffffffffff8381831617835250505050610b54565b50505050565b5f5f60205f8451602086015f885af180610b73576040513d5f823e3d81fd5b3d92505f519150505f8214610b8c576001811415610ba7565b5f8473ffffffffffffffffffffffffffffffffffffffff163b145b15610be957836040517f5274afe7000000000000000000000000000000000000000000000000000000008152600401610be09190610d0d565b60405180910390fd5b50505050565b5f819050919050565b610c0181610bef565b82525050565b5f602082019050610c1a5f830184610bf8565b92915050565b5f5ffd5b5f73ffffffffffffffffffffffffffffffffffffffff82169050919050565b5f610c4d82610c24565b9050919050565b610c5d81610c43565b8114610c67575f5ffd5b50565b5f81359050610c7881610c54565b92915050565b5f60208284031215610c9357610c92610c20565b5b5f610ca084828501610c6a565b91505092915050565b610cb281610bef565b8114610cbc575f5ffd5b50565b5f81359050610ccd81610ca9565b92915050565b5f60208284031215610ce857610ce7610c20565b5b5f610cf584828501610cbf565b91505092915050565b610d0781610c43565b82525050565b5f602082019050610d205f830184610cfe565b92915050565b5f819050919050565b5f610d49610d44610d3f84610c24565b610d26565b610c24565b9050919050565b5f610d5a82610d2f565b9050919050565b5f610d6b82610d50565b9050919050565b610d7b81610d61565b82525050565b5f602082019050610d945f830184610d72565b92915050565b7f4e487b71000000000000000000000000000000000000000000000000000000005f52601160045260245ffd5b5f610dd182610bef565b9150610ddc83610bef565b9250828201905080821115610df457610df3610d9a565b5b92915050565b5f81519050610e0881610ca9565b92915050565b5f60208284031215610e2357610e22610c20565b5b5f610e3084828501610dfa565b91505092915050565b5f604082019050610e4c5f830185610cfe565b610e596020830184610bf8565b9392505050565b5f606082019050610e735f830186610cfe565b610e806020830185610cfe565b610e8d6040830184610bf8565b94935050505056fea26469706673582212203c7332b5528d167c4b07d4f89abcfa4afe21d4b00d4265f44cbf52c8bb64548d64736f6c634300081c0033",
    "linkReferences": {}
  },
  "methodIdentifiers": {
    "deposit(uint256)": "b6b55f25",
    "drip(uint256)": "58326b7a",
    "dripInterval()": "6a214811",
    "dripLimit()": "4d4c7d11",
    "getDripInterval()": "08b930aa",
    "getDripLimit()": "079da0b3",
    "getDripTime(address)": "b1c6d07b",
    "lastDripTime(address)": "8b8a60bd",
    "owner()": "8da5cb5b",
    "renounceOwnership()": "715018a6",
    "setDripInterval(uint256)": "a9a89db9",
    "setDripLimit(uint256)": "4bd74aa6",
    "setTokenAddress(address)": "26a4e8d2",
    "token()": "fc0c546a",
    "tokenAddress()": "9d76ea58",
    "transferOwnership(address)": "f2fde38b"
  },
  "id": 30
}